{
  "_format": "hh-sol-artifact-1",
  "contractName": "Factory",
  "sourceName": "contracts/Factory.sol",
  "abi": [
    {
      "inputs": [
        {
          "internalType": "uint256",
          "name": "_fee",
          "type": "uint256"
        }
      ],
      "stateMutability": "nonpayable",
      "type": "constructor"
    },
    {
      "anonymous": false,
      "inputs": [
        {
          "indexed": true,
          "internalType": "address",
          "name": "token",
          "type": "address"
        },
        {
          "indexed": false,
          "internalType": "uint256",
          "name": "amount",
          "type": "uint256"
        }
      ],
      "name": "Buy",
      "type": "event"
    },
    {
      "anonymous": false,
      "inputs": [
        {
          "indexed": true,
          "internalType": "address",
          "name": "token",
          "type": "address"
        }
      ],
      "name": "Created",
      "type": "event"
    },
    {
      "inputs": [],
      "name": "TARGET",
      "outputs": [
        {
          "internalType": "uint256",
          "name": "",
          "type": "uint256"
        }
      ],
      "stateMutability": "view",
      "type": "function"
    },
    {
      "inputs": [],
      "name": "TOKEN_LIMIT",
      "outputs": [
        {
          "internalType": "uint256",
          "name": "",
          "type": "uint256"
        }
      ],
      "stateMutability": "view",
      "type": "function"
    },
    {
      "inputs": [
        {
          "internalType": "address",
          "name": "_token",
          "type": "address"
        },
        {
          "internalType": "uint256",
          "name": "_amount",
          "type": "uint256"
        }
      ],
      "name": "buy",
      "outputs": [],
      "stateMutability": "payable",
      "type": "function"
    },
    {
      "inputs": [
        {
          "internalType": "string",
          "name": "_name",
          "type": "string"
        },
        {
          "internalType": "string",
          "name": "_symbole",
          "type": "string"
        }
      ],
      "name": "create",
      "outputs": [],
      "stateMutability": "payable",
      "type": "function"
    },
    {
      "inputs": [
        {
          "internalType": "address",
          "name": "_token",
          "type": "address"
        }
      ],
      "name": "deposite",
      "outputs": [],
      "stateMutability": "nonpayable",
      "type": "function"
    },
    {
      "inputs": [],
      "name": "fee",
      "outputs": [
        {
          "internalType": "uint256",
          "name": "",
          "type": "uint256"
        }
      ],
      "stateMutability": "view",
      "type": "function"
    },
    {
      "inputs": [
        {
          "internalType": "uint256",
          "name": "_sold",
          "type": "uint256"
        }
      ],
      "name": "getCost",
      "outputs": [
        {
          "internalType": "uint256",
          "name": "",
          "type": "uint256"
        }
      ],
      "stateMutability": "pure",
      "type": "function"
    },
    {
      "inputs": [
        {
          "internalType": "uint256",
          "name": "_index",
          "type": "uint256"
        }
      ],
      "name": "getTokenSale",
      "outputs": [
        {
          "components": [
            {
              "internalType": "address",
              "name": "token",
              "type": "address"
            },
            {
              "internalType": "string",
              "name": "name",
              "type": "string"
            },
            {
              "internalType": "address",
              "name": "creator",
              "type": "address"
            },
            {
              "internalType": "uint256",
              "name": "sold",
              "type": "uint256"
            },
            {
              "internalType": "uint256",
              "name": "raised",
              "type": "uint256"
            },
            {
              "internalType": "bool",
              "name": "isOpen",
              "type": "bool"
            }
          ],
          "internalType": "struct Factory.TokenSale",
          "name": "",
          "type": "tuple"
        }
      ],
      "stateMutability": "view",
      "type": "function"
    },
    {
      "inputs": [],
      "name": "owner",
      "outputs": [
        {
          "internalType": "address",
          "name": "",
          "type": "address"
        }
      ],
      "stateMutability": "view",
      "type": "function"
    },
    {
      "inputs": [
        {
          "internalType": "address",
          "name": "",
          "type": "address"
        }
      ],
      "name": "tokenToSales",
      "outputs": [
        {
          "internalType": "address",
          "name": "token",
          "type": "address"
        },
        {
          "internalType": "string",
          "name": "name",
          "type": "string"
        },
        {
          "internalType": "address",
          "name": "creator",
          "type": "address"
        },
        {
          "internalType": "uint256",
          "name": "sold",
          "type": "uint256"
        },
        {
          "internalType": "uint256",
          "name": "raised",
          "type": "uint256"
        },
        {
          "internalType": "bool",
          "name": "isOpen",
          "type": "bool"
        }
      ],
      "stateMutability": "view",
      "type": "function"
    },
    {
      "inputs": [
        {
          "internalType": "uint256",
          "name": "",
          "type": "uint256"
        }
      ],
      "name": "tokens",
      "outputs": [
        {
          "internalType": "address",
          "name": "",
          "type": "address"
        }
      ],
      "stateMutability": "view",
      "type": "function"
    },
    {
      "inputs": [],
      "name": "totalTokens",
      "outputs": [
        {
          "internalType": "uint256",
          "name": "",
          "type": "uint256"
        }
      ],
      "stateMutability": "view",
      "type": "function"
    },
    {
      "inputs": [
        {
          "internalType": "uint256",
          "name": "_amount",
          "type": "uint256"
        }
      ],
      "name": "withdraw",
      "outputs": [],
      "stateMutability": "nonpayable",
      "type": "function"
    }
  ],
  "bytecode": "0x60a06040526969e10de76676d080000060005534801561001e57600080fd5b50604051613cad380380613cad833981810160405281019061004091906100ca565b806080818152505033600160006101000a81548173ffffffffffffffffffffffffffffffffffffffff021916908373ffffffffffffffffffffffffffffffffffffffff160217905550506100f7565b600080fd5b6000819050919050565b6100a781610094565b81146100b257600080fd5b50565b6000815190506100c48161009e565b92915050565b6000602082840312156100e0576100df61008f565b5b60006100ee848285016100b5565b91505092915050565b608051613b946101196000396000818161032901526112140152613b946000f3fe6080604052600436106100c25760003560e01c80635a4dd47d1161007f5780638da5cb5b116100595780638da5cb5b14610284578063cc1f2afa146102af578063cce7ec13146102da578063ddca3f43146102f6576100c2565b80635a4dd47d146101f35780637e1c0c091461023057806382c7f6271461025b576100c2565b8063031bd4c4146100c7578063198e2b8a146100f25780631fbc147b1461010e5780632e1a7d4d1461014b57806337a10fc0146101745780634f64b2be146101b6575b600080fd5b3480156100d357600080fd5b506100dc610321565b6040516100e991906112c0565b60405180910390f35b61010c60048036038101906101079190611435565b610327565b005b34801561011a57600080fd5b50610135600480360381019061013091906114d9565b610613565b6040516101429190611679565b60405180910390f35b34801561015757600080fd5b50610172600480360381019061016d91906114d9565b610817565b005b34801561018057600080fd5b5061019b600480360381019061019691906116c7565b610979565b6040516101ad9695949392919061175c565b60405180910390f35b3480156101c257600080fd5b506101dd60048036038101906101d891906114d9565b610a8a565b6040516101ea91906117c4565b60405180910390f35b3480156101ff57600080fd5b5061021a600480360381019061021591906114d9565b610ac9565b60405161022791906112c0565b60405180910390f35b34801561023c57600080fd5b50610245610b21565b60405161025291906112c0565b60405180910390f35b34801561026757600080fd5b50610282600480360381019061027d91906116c7565b610b27565b005b34801561029057600080fd5b50610299610ee8565b6040516102a691906117c4565b60405180910390f35b3480156102bb57600080fd5b506102c4610f0e565b6040516102d191906112c0565b60405180910390f35b6102f460048036038101906102ef91906117df565b610f1a565b005b34801561030257600080fd5b5061030b611212565b60405161031891906112c0565b60405180910390f35b60005481565b7f000000000000000000000000000000000000000000000000000000000000000034101561038a576040517f08c379a00000000000000000000000000000000000000000000000000000000081526004016103819061186b565b60405180910390fd5b600033838369d3c21bcecceda10000006040516103a690611236565b6103b394939291906118d0565b604051809103906000f0801580156103cf573d6000803e3d6000fd5b5090506003819080600181540180825580915050600190039060005260206000200160009091909190916101000a81548173ffffffffffffffffffffffffffffffffffffffff021916908373ffffffffffffffffffffffffffffffffffffffff1602179055506002600081548092919061044890611952565b919050555060006040518060c001604052808373ffffffffffffffffffffffffffffffffffffffff1681526020018581526020013373ffffffffffffffffffffffffffffffffffffffff168152602001600081526020016000815260200160011515815250905080600460008473ffffffffffffffffffffffffffffffffffffffff1673ffffffffffffffffffffffffffffffffffffffff16815260200190815260200160002060008201518160000160006101000a81548173ffffffffffffffffffffffffffffffffffffffff021916908373ffffffffffffffffffffffffffffffffffffffff160217905550602082015181600101908161054b9190611b9c565b5060408201518160020160006101000a81548173ffffffffffffffffffffffffffffffffffffffff021916908373ffffffffffffffffffffffffffffffffffffffff160217905550606082015181600301556080820151816004015560a08201518160050160006101000a81548160ff0219169083151502179055509050508173ffffffffffffffffffffffffffffffffffffffff167f1449abf21e49fd025f33495e77f7b1461caefdd3d4bb646424a3f445c4576a5b60405160405180910390a250505050565b61061b611243565b600460006003848154811061063357610632611c6e565b5b9060005260206000200160009054906101000a900473ffffffffffffffffffffffffffffffffffffffff1673ffffffffffffffffffffffffffffffffffffffff1673ffffffffffffffffffffffffffffffffffffffff1681526020019081526020016000206040518060c00160405290816000820160009054906101000a900473ffffffffffffffffffffffffffffffffffffffff1673ffffffffffffffffffffffffffffffffffffffff1673ffffffffffffffffffffffffffffffffffffffff168152602001600182018054610709906119c9565b80601f0160208091040260200160405190810160405280929190818152602001828054610735906119c9565b80156107825780601f1061075757610100808354040283529160200191610782565b820191906000526020600020905b81548152906001019060200180831161076557829003601f168201915b505050505081526020016002820160009054906101000a900473ffffffffffffffffffffffffffffffffffffffff1673ffffffffffffffffffffffffffffffffffffffff1673ffffffffffffffffffffffffffffffffffffffff16815260200160038201548152602001600482015481526020016005820160009054906101000a900460ff1615151515815250509050919050565b600160009054906101000a900473ffffffffffffffffffffffffffffffffffffffff1673ffffffffffffffffffffffffffffffffffffffff163373ffffffffffffffffffffffffffffffffffffffff16146108a7576040517f08c379a000000000000000000000000000000000000000000000000000000000815260040161089e90611ce9565b60405180910390fd5b6000600160009054906101000a900473ffffffffffffffffffffffffffffffffffffffff1673ffffffffffffffffffffffffffffffffffffffff16826040516108ef90611d3a565b60006040518083038185875af1925050503d806000811461092c576040519150601f19603f3d011682016040523d82523d6000602084013e610931565b606091505b5050905080610975576040517f08c379a000000000000000000000000000000000000000000000000000000000815260040161096c90611d9b565b60405180910390fd5b5050565b60046020528060005260406000206000915090508060000160009054906101000a900473ffffffffffffffffffffffffffffffffffffffff16908060010180546109c2906119c9565b80601f01602080910402602001604051908101604052809291908181526020018280546109ee906119c9565b8015610a3b5780601f10610a1057610100808354040283529160200191610a3b565b820191906000526020600020905b815481529060010190602001808311610a1e57829003601f168201915b5050505050908060020160009054906101000a900473ffffffffffffffffffffffffffffffffffffffff16908060030154908060040154908060050160009054906101000a900460ff16905086565b60038181548110610a9a57600080fd5b906000526020600020016000915054906101000a900473ffffffffffffffffffffffffffffffffffffffff1681565b600080655af3107a400090506000655af3107a40009050600069021e19e0c9bab240000090506000838287610afe9190611dea565b84610b099190611e1b565b610b139190611e5d565b905080945050505050919050565b60025481565b60008190506000600460008473ffffffffffffffffffffffffffffffffffffffff1673ffffffffffffffffffffffffffffffffffffffff1681526020019081526020016000206040518060c00160405290816000820160009054906101000a900473ffffffffffffffffffffffffffffffffffffffff1673ffffffffffffffffffffffffffffffffffffffff1673ffffffffffffffffffffffffffffffffffffffff168152602001600182018054610bde906119c9565b80601f0160208091040260200160405190810160405280929190818152602001828054610c0a906119c9565b8015610c575780601f10610c2c57610100808354040283529160200191610c57565b820191906000526020600020905b815481529060010190602001808311610c3a57829003601f168201915b505050505081526020016002820160009054906101000a900473ffffffffffffffffffffffffffffffffffffffff1673ffffffffffffffffffffffffffffffffffffffff1673ffffffffffffffffffffffffffffffffffffffff16815260200160038201548152602001600482015481526020016005820160009054906101000a900460ff1615151515815250509050600015158160a00151151514610d32576040517f08c379a0000000000000000000000000000000000000000000000000000000008152600401610d2990611edd565b60405180910390fd5b8173ffffffffffffffffffffffffffffffffffffffff1663a9059cbb82604001518473ffffffffffffffffffffffffffffffffffffffff166370a08231306040518263ffffffff1660e01b8152600401610d8c91906117c4565b602060405180830381865afa158015610da9573d6000803e3d6000fd5b505050506040513d601f19601f82011682018060405250810190610dcd9190611f12565b6040518363ffffffff1660e01b8152600401610dea929190611f3f565b6020604051808303816000875af1158015610e09573d6000803e3d6000fd5b505050506040513d601f19601f82011682018060405250810190610e2d9190611f94565b506000816040015173ffffffffffffffffffffffffffffffffffffffff168260800151604051610e5c90611d3a565b60006040518083038185875af1925050503d8060008114610e99576040519150601f19603f3d011682016040523d82523d6000602084013e610e9e565b606091505b5050905080610ee2576040517f08c379a0000000000000000000000000000000000000000000000000000000008152600401610ed99061200d565b60405180910390fd5b50505050565b600160009054906101000a900473ffffffffffffffffffffffffffffffffffffffff1681565b6729a2241af62c000081565b6000600460008473ffffffffffffffffffffffffffffffffffffffff1673ffffffffffffffffffffffffffffffffffffffff1681526020019081526020016000209050600115158160050160009054906101000a900460ff16151514610fb5576040517f08c379a0000000000000000000000000000000000000000000000000000000008152600401610fac9061209f565b60405180910390fd5b670de0b6b3a7640000821015611000576040517f08c379a0000000000000000000000000000000000000000000000000000000008152600401610ff79061210b565b60405180910390fd5b69021e19e0c9bab240000082111561104d576040517f08c379a000000000000000000000000000000000000000000000000000000000815260040161104490612177565b60405180910390fd5b600061105c8260030154610ac9565b90506000670de0b6b3a7640000846110749190611dea565b8261107f9190611e1b565b9050838360030160008282546110959190611e5d565b92505081905550808360040160008282546110b09190611e5d565b92505081905550803410156110fa576040517f08c379a00000000000000000000000000000000000000000000000000000000081526004016110f1906121e3565b60405180910390fd5b600054836003015410158061111b57506729a2241af62c0000836004015410155b1561113e5760008360050160006101000a81548160ff0219169083151502179055505b8473ffffffffffffffffffffffffffffffffffffffff1663a9059cbb33866040518363ffffffff1660e01b8152600401611179929190611f3f565b6020604051808303816000875af1158015611198573d6000803e3d6000fd5b505050506040513d601f19601f820116820180604052508101906111bc9190611f94565b508473ffffffffffffffffffffffffffffffffffffffff167fe3d4187f6ca4248660cc0ac8b8056515bac4a8132be2eca31d6d0cc170722a7e8560405161120391906112c0565b60405180910390a25050505050565b7f000000000000000000000000000000000000000000000000000000000000000081565b61195b8061220483390190565b6040518060c00160405280600073ffffffffffffffffffffffffffffffffffffffff16815260200160608152602001600073ffffffffffffffffffffffffffffffffffffffff16815260200160008152602001600081526020016000151581525090565b6000819050919050565b6112ba816112a7565b82525050565b60006020820190506112d560008301846112b1565b92915050565b6000604051905090565b600080fd5b600080fd5b600080fd5b600080fd5b6000601f19601f8301169050919050565b7f4e487b7100000000000000000000000000000000000000000000000000000000600052604160045260246000fd5b611342826112f9565b810181811067ffffffffffffffff821117156113615761136061130a565b5b80604052505050565b60006113746112db565b90506113808282611339565b919050565b600067ffffffffffffffff8211156113a05761139f61130a565b5b6113a9826112f9565b9050602081019050919050565b82818337600083830152505050565b60006113d86113d384611385565b61136a565b9050828152602081018484840111156113f4576113f36112f4565b5b6113ff8482856113b6565b509392505050565b600082601f83011261141c5761141b6112ef565b5b813561142c8482602086016113c5565b91505092915050565b6000806040838503121561144c5761144b6112e5565b5b600083013567ffffffffffffffff81111561146a576114696112ea565b5b61147685828601611407565b925050602083013567ffffffffffffffff811115611497576114966112ea565b5b6114a385828601611407565b9150509250929050565b6114b6816112a7565b81146114c157600080fd5b50565b6000813590506114d3816114ad565b92915050565b6000602082840312156114ef576114ee6112e5565b5b60006114fd848285016114c4565b91505092915050565b600073ffffffffffffffffffffffffffffffffffffffff82169050919050565b600061153182611506565b9050919050565b61154181611526565b82525050565b600081519050919050565b600082825260208201905092915050565b60005b83811015611581578082015181840152602081019050611566565b60008484015250505050565b600061159882611547565b6115a28185611552565b93506115b2818560208601611563565b6115bb816112f9565b840191505092915050565b6115cf816112a7565b82525050565b60008115159050919050565b6115ea816115d5565b82525050565b600060c0830160008301516116086000860182611538565b5060208301518482036020860152611620828261158d565b91505060408301516116356040860182611538565b50606083015161164860608601826115c6565b50608083015161165b60808601826115c6565b5060a083015161166e60a08601826115e1565b508091505092915050565b6000602082019050818103600083015261169381846115f0565b905092915050565b6116a481611526565b81146116af57600080fd5b50565b6000813590506116c18161169b565b92915050565b6000602082840312156116dd576116dc6112e5565b5b60006116eb848285016116b2565b91505092915050565b6116fd81611526565b82525050565b600082825260208201905092915050565b600061171f82611547565b6117298185611703565b9350611739818560208601611563565b611742816112f9565b840191505092915050565b611756816115d5565b82525050565b600060c08201905061177160008301896116f4565b81810360208301526117838188611714565b905061179260408301876116f4565b61179f60608301866112b1565b6117ac60808301856112b1565b6117b960a083018461174d565b979650505050505050565b60006020820190506117d960008301846116f4565b92915050565b600080604083850312156117f6576117f56112e5565b5b6000611804858286016116b2565b9250506020611815858286016114c4565b9150509250929050565b7f466163746f72793a20466565206e6f74206d6574000000000000000000000000600082015250565b6000611855601483611703565b91506118608261181f565b602082019050919050565b6000602082019050818103600083015261188481611848565b9050919050565b6000819050919050565b6000819050919050565b60006118ba6118b56118b08461188b565b611895565b6112a7565b9050919050565b6118ca8161189f565b82525050565b60006080820190506118e560008301876116f4565b81810360208301526118f78186611714565b9050818103604083015261190b8185611714565b905061191a60608301846118c1565b95945050505050565b7f4e487b7100000000000000000000000000000000000000000000000000000000600052601160045260246000fd5b600061195d826112a7565b91507fffffffffffffffffffffffffffffffffffffffffffffffffffffffffffffffff820361198f5761198e611923565b5b600182019050919050565b7f4e487b7100000000000000000000000000000000000000000000000000000000600052602260045260246000fd5b600060028204905060018216806119e157607f821691505b6020821081036119f4576119f361199a565b5b50919050565b60008190508160005260206000209050919050565b60006020601f8301049050919050565b600082821b905092915050565b600060088302611a5c7fffffffffffffffffffffffffffffffffffffffffffffffffffffffffffffffff82611a1f565b611a668683611a1f565b95508019841693508086168417925050509392505050565b6000611a99611a94611a8f846112a7565b611895565b6112a7565b9050919050565b6000819050919050565b611ab383611a7e565b611ac7611abf82611aa0565b848454611a2c565b825550505050565b600090565b611adc611acf565b611ae7818484611aaa565b505050565b5b81811015611b0b57611b00600082611ad4565b600181019050611aed565b5050565b601f821115611b5057611b21816119fa565b611b2a84611a0f565b81016020851015611b39578190505b611b4d611b4585611a0f565b830182611aec565b50505b505050565b600082821c905092915050565b6000611b7360001984600802611b55565b1980831691505092915050565b6000611b8c8383611b62565b9150826002028217905092915050565b611ba582611547565b67ffffffffffffffff811115611bbe57611bbd61130a565b5b611bc882546119c9565b611bd3828285611b0f565b600060209050601f831160018114611c065760008415611bf4578287015190505b611bfe8582611b80565b865550611c66565b601f198416611c14866119fa565b60005b82811015611c3c57848901518255600182019150602085019450602081019050611c17565b86831015611c595784890151611c55601f891682611b62565b8355505b6001600288020188555050505b505050505050565b7f4e487b7100000000000000000000000000000000000000000000000000000000600052603260045260246000fd5b7f466163746f72793a204f6e6c79204f776e657200000000000000000000000000600082015250565b6000611cd3601383611703565b9150611cde82611c9d565b602082019050919050565b60006020820190508181036000830152611d0281611cc6565b9050919050565b600081905092915050565b50565b6000611d24600083611d09565b9150611d2f82611d14565b600082019050919050565b6000611d4582611d17565b9150819050919050565b7f466163746f72793a205769746864726177204661696c65640000000000000000600082015250565b6000611d85601883611703565b9150611d9082611d4f565b602082019050919050565b60006020820190508181036000830152611db481611d78565b9050919050565b7f4e487b7100000000000000000000000000000000000000000000000000000000600052601260045260246000fd5b6000611df5826112a7565b9150611e00836112a7565b925082611e1057611e0f611dbb565b5b828204905092915050565b6000611e26826112a7565b9150611e31836112a7565b9250828202611e3f816112a7565b91508282048414831517611e5657611e55611923565b5b5092915050565b6000611e68826112a7565b9150611e73836112a7565b9250828201905080821115611e8b57611e8a611923565b5b92915050565b7f466163746f72793a20546172676574206e6f7420526561636865642079657400600082015250565b6000611ec7601f83611703565b9150611ed282611e91565b602082019050919050565b60006020820190508181036000830152611ef681611eba565b9050919050565b600081519050611f0c816114ad565b92915050565b600060208284031215611f2857611f276112e5565b5b6000611f3684828501611efd565b91505092915050565b6000604082019050611f5460008301856116f4565b611f6160208301846112b1565b9392505050565b611f71816115d5565b8114611f7c57600080fd5b50565b600081519050611f8e81611f68565b92915050565b600060208284031215611faa57611fa96112e5565b5b6000611fb884828501611f7f565b91505092915050565b7f466163746f72793a20457468207472616e73666572206661696c656400000000600082015250565b6000611ff7601c83611703565b915061200282611fc1565b602082019050919050565b6000602082019050818103600083015261202681611fea565b9050919050565b7f466163746f72793a2053616c65206973206e6f74204f70656e20666f7220746860008201527f697320546f6b656e205965740000000000000000000000000000000000000000602082015250565b6000612089602c83611703565b91506120948261202d565b604082019050919050565b600060208201905081810360008301526120b88161207c565b9050919050565b7f466163746f72793a20416d6f756e7420697320746f6f204c6f77000000000000600082015250565b60006120f5601a83611703565b9150612100826120bf565b602082019050919050565b60006020820190508181036000830152612124816120e8565b9050919050565b7f466163746f72793a20416d6f756e7420697320746f6f20486967680000000000600082015250565b6000612161601b83611703565b915061216c8261212b565b602082019050919050565b6000602082019050818103600083015261219081612154565b9050919050565b7f466163746f72793a20496e7375666669656e7420455448207265636976656400600082015250565b60006121cd601f83611703565b91506121d882612197565b602082019050919050565b600060208201905081810360008301526121fc816121c0565b905091905056fe608060405234801561001057600080fd5b5060405161195b38038061195b833981810160405281019061003291906105a7565b82828160039081610043919061085d565b508060049081610053919061085d565b50505033600560006101000a81548173ffffffffffffffffffffffffffffffffffffffff021916908373ffffffffffffffffffffffffffffffffffffffff16021790555083600660006101000a81548173ffffffffffffffffffffffffffffffffffffffff021916908373ffffffffffffffffffffffffffffffffffffffff1602179055506100e833826100f160201b60201c565b50505050610a1d565b600073ffffffffffffffffffffffffffffffffffffffff168273ffffffffffffffffffffffffffffffffffffffff16036101635760006040517fec442f0500000000000000000000000000000000000000000000000000000000815260040161015a919061093e565b60405180910390fd5b6101756000838361017960201b60201c565b5050565b600073ffffffffffffffffffffffffffffffffffffffff168373ffffffffffffffffffffffffffffffffffffffff16036101cb5780600260008282546101bf9190610988565b9250508190555061029e565b60008060008573ffffffffffffffffffffffffffffffffffffffff1673ffffffffffffffffffffffffffffffffffffffff16815260200190815260200160002054905081811015610257578381836040517fe450d38c00000000000000000000000000000000000000000000000000000000815260040161024e939291906109cb565b60405180910390fd5b8181036000808673ffffffffffffffffffffffffffffffffffffffff1673ffffffffffffffffffffffffffffffffffffffff16815260200190815260200160002081905550505b600073ffffffffffffffffffffffffffffffffffffffff168273ffffffffffffffffffffffffffffffffffffffff16036102e75780600260008282540392505081905550610334565b806000808473ffffffffffffffffffffffffffffffffffffffff1673ffffffffffffffffffffffffffffffffffffffff168152602001908152602001600020600082825401925050819055505b8173ffffffffffffffffffffffffffffffffffffffff168373ffffffffffffffffffffffffffffffffffffffff167fddf252ad1be2c89b69c2b068fc378daa952ba7f163c4a11628f55a4df523b3ef836040516103919190610a02565b60405180910390a3505050565b6000604051905090565b600080fd5b600080fd5b600073ffffffffffffffffffffffffffffffffffffffff82169050919050565b60006103dd826103b2565b9050919050565b6103ed816103d2565b81146103f857600080fd5b50565b60008151905061040a816103e4565b92915050565b600080fd5b600080fd5b6000601f19601f8301169050919050565b7f4e487b7100000000000000000000000000000000000000000000000000000000600052604160045260246000fd5b6104638261041a565b810181811067ffffffffffffffff821117156104825761048161042b565b5b80604052505050565b600061049561039e565b90506104a1828261045a565b919050565b600067ffffffffffffffff8211156104c1576104c061042b565b5b6104ca8261041a565b9050602081019050919050565b60005b838110156104f55780820151818401526020810190506104da565b60008484015250505050565b600061051461050f846104a6565b61048b565b9050828152602081018484840111156105305761052f610415565b5b61053b8482856104d7565b509392505050565b600082601f83011261055857610557610410565b5b8151610568848260208601610501565b91505092915050565b6000819050919050565b61058481610571565b811461058f57600080fd5b50565b6000815190506105a18161057b565b92915050565b600080600080608085870312156105c1576105c06103a8565b5b60006105cf878288016103fb565b945050602085015167ffffffffffffffff8111156105f0576105ef6103ad565b5b6105fc87828801610543565b935050604085015167ffffffffffffffff81111561061d5761061c6103ad565b5b61062987828801610543565b925050606061063a87828801610592565b91505092959194509250565b600081519050919050565b7f4e487b7100000000000000000000000000000000000000000000000000000000600052602260045260246000fd5b6000600282049050600182168061069857607f821691505b6020821081036106ab576106aa610651565b5b50919050565b60008190508160005260206000209050919050565b60006020601f8301049050919050565b600082821b905092915050565b6000600883026107137fffffffffffffffffffffffffffffffffffffffffffffffffffffffffffffffff826106d6565b61071d86836106d6565b95508019841693508086168417925050509392505050565b6000819050919050565b600061075a61075561075084610571565b610735565b610571565b9050919050565b6000819050919050565b6107748361073f565b61078861078082610761565b8484546106e3565b825550505050565b600090565b61079d610790565b6107a881848461076b565b505050565b5b818110156107cc576107c1600082610795565b6001810190506107ae565b5050565b601f821115610811576107e2816106b1565b6107eb846106c6565b810160208510156107fa578190505b61080e610806856106c6565b8301826107ad565b50505b505050565b600082821c905092915050565b600061083460001984600802610816565b1980831691505092915050565b600061084d8383610823565b9150826002028217905092915050565b61086682610646565b67ffffffffffffffff81111561087f5761087e61042b565b5b6108898254610680565b6108948282856107d0565b600060209050601f8311600181146108c757600084156108b5578287015190505b6108bf8582610841565b865550610927565b601f1984166108d5866106b1565b60005b828110156108fd578489015182556001820191506020850194506020810190506108d8565b8683101561091a5784890151610916601f891682610823565b8355505b6001600288020188555050505b505050505050565b610938816103d2565b82525050565b6000602082019050610953600083018461092f565b92915050565b7f4e487b7100000000000000000000000000000000000000000000000000000000600052601160045260246000fd5b600061099382610571565b915061099e83610571565b92508282019050808211156109b6576109b5610959565b5b92915050565b6109c581610571565b82525050565b60006060820190506109e0600083018661092f565b6109ed60208301856109bc565b6109fa60408301846109bc565b949350505050565b6000602082019050610a1760008301846109bc565b92915050565b610f2f80610a2c6000396000f3fe608060405234801561001057600080fd5b50600436106100a95760003560e01c8063313ce56711610071578063313ce5671461016857806370a08231146101865780638da5cb5b146101b657806395d89b41146101d4578063a9059cbb146101f2578063dd62ed3e14610222576100a9565b806302d05d3f146100ae57806306fdde03146100cc578063095ea7b3146100ea57806318160ddd1461011a57806323b872dd14610138575b600080fd5b6100b6610252565b6040516100c39190610af8565b60405180910390f35b6100d4610278565b6040516100e19190610ba3565b60405180910390f35b61010460048036038101906100ff9190610c2c565b61030a565b6040516101119190610c87565b60405180910390f35b61012261032d565b60405161012f9190610cb1565b60405180910390f35b610152600480360381019061014d9190610ccc565b610337565b60405161015f9190610c87565b60405180910390f35b610170610366565b60405161017d9190610d3b565b60405180910390f35b6101a0600480360381019061019b9190610d56565b61036f565b6040516101ad9190610cb1565b60405180910390f35b6101be6103b7565b6040516101cb9190610da4565b60405180910390f35b6101dc6103dd565b6040516101e99190610ba3565b60405180910390f35b61020c60048036038101906102079190610c2c565b61046f565b6040516102199190610c87565b60405180910390f35b61023c60048036038101906102379190610dbf565b610492565b6040516102499190610cb1565b60405180910390f35b600660009054906101000a900473ffffffffffffffffffffffffffffffffffffffff1681565b60606003805461028790610e2e565b80601f01602080910402602001604051908101604052809291908181526020018280546102b390610e2e565b80156103005780601f106102d557610100808354040283529160200191610300565b820191906000526020600020905b8154815290600101906020018083116102e357829003601f168201915b5050505050905090565b600080610315610519565b9050610322818585610521565b600191505092915050565b6000600254905090565b600080610342610519565b905061034f858285610533565b61035a8585856105c7565b60019150509392505050565b60006012905090565b60008060008373ffffffffffffffffffffffffffffffffffffffff1673ffffffffffffffffffffffffffffffffffffffff168152602001908152602001600020549050919050565b600560009054906101000a900473ffffffffffffffffffffffffffffffffffffffff1681565b6060600480546103ec90610e2e565b80601f016020809104026020016040519081016040528092919081815260200182805461041890610e2e565b80156104655780601f1061043a57610100808354040283529160200191610465565b820191906000526020600020905b81548152906001019060200180831161044857829003601f168201915b5050505050905090565b60008061047a610519565b90506104878185856105c7565b600191505092915050565b6000600160008473ffffffffffffffffffffffffffffffffffffffff1673ffffffffffffffffffffffffffffffffffffffff16815260200190815260200160002060008373ffffffffffffffffffffffffffffffffffffffff1673ffffffffffffffffffffffffffffffffffffffff16815260200190815260200160002054905092915050565b600033905090565b61052e83838360016106bb565b505050565b600061053f8484610492565b90507fffffffffffffffffffffffffffffffffffffffffffffffffffffffffffffffff81146105c157818110156105b1578281836040517ffb8f41b20000000000000000000000000000000000000000000000000000000081526004016105a893929190610e5f565b60405180910390fd5b6105c0848484840360006106bb565b5b50505050565b600073ffffffffffffffffffffffffffffffffffffffff168373ffffffffffffffffffffffffffffffffffffffff16036106395760006040517f96c6fd1e0000000000000000000000000000000000000000000000000000000081526004016106309190610af8565b60405180910390fd5b600073ffffffffffffffffffffffffffffffffffffffff168273ffffffffffffffffffffffffffffffffffffffff16036106ab5760006040517fec442f050000000000000000000000000000000000000000000000000000000081526004016106a29190610af8565b60405180910390fd5b6106b6838383610892565b505050565b600073ffffffffffffffffffffffffffffffffffffffff168473ffffffffffffffffffffffffffffffffffffffff160361072d5760006040517fe602df050000000000000000000000000000000000000000000000000000000081526004016107249190610af8565b60405180910390fd5b600073ffffffffffffffffffffffffffffffffffffffff168373ffffffffffffffffffffffffffffffffffffffff160361079f5760006040517f94280d620000000000000000000000000000000000000000000000000000000081526004016107969190610af8565b60405180910390fd5b81600160008673ffffffffffffffffffffffffffffffffffffffff1673ffffffffffffffffffffffffffffffffffffffff16815260200190815260200160002060008573ffffffffffffffffffffffffffffffffffffffff1673ffffffffffffffffffffffffffffffffffffffff16815260200190815260200160002081905550801561088c578273ffffffffffffffffffffffffffffffffffffffff168473ffffffffffffffffffffffffffffffffffffffff167f8c5be1e5ebec7d5bd14f71427d1e84f3dd0314c0f7b2291e5b200ac8c7c3b925846040516108839190610cb1565b60405180910390a35b50505050565b600073ffffffffffffffffffffffffffffffffffffffff168373ffffffffffffffffffffffffffffffffffffffff16036108e45780600260008282546108d89190610ec5565b925050819055506109b7565b60008060008573ffffffffffffffffffffffffffffffffffffffff1673ffffffffffffffffffffffffffffffffffffffff16815260200190815260200160002054905081811015610970578381836040517fe450d38c00000000000000000000000000000000000000000000000000000000815260040161096793929190610e5f565b60405180910390fd5b8181036000808673ffffffffffffffffffffffffffffffffffffffff1673ffffffffffffffffffffffffffffffffffffffff16815260200190815260200160002081905550505b600073ffffffffffffffffffffffffffffffffffffffff168273ffffffffffffffffffffffffffffffffffffffff1603610a005780600260008282540392505081905550610a4d565b806000808473ffffffffffffffffffffffffffffffffffffffff1673ffffffffffffffffffffffffffffffffffffffff168152602001908152602001600020600082825401925050819055505b8173ffffffffffffffffffffffffffffffffffffffff168373ffffffffffffffffffffffffffffffffffffffff167fddf252ad1be2c89b69c2b068fc378daa952ba7f163c4a11628f55a4df523b3ef83604051610aaa9190610cb1565b60405180910390a3505050565b600073ffffffffffffffffffffffffffffffffffffffff82169050919050565b6000610ae282610ab7565b9050919050565b610af281610ad7565b82525050565b6000602082019050610b0d6000830184610ae9565b92915050565b600081519050919050565b600082825260208201905092915050565b60005b83811015610b4d578082015181840152602081019050610b32565b60008484015250505050565b6000601f19601f8301169050919050565b6000610b7582610b13565b610b7f8185610b1e565b9350610b8f818560208601610b2f565b610b9881610b59565b840191505092915050565b60006020820190508181036000830152610bbd8184610b6a565b905092915050565b600080fd5b610bd381610ad7565b8114610bde57600080fd5b50565b600081359050610bf081610bca565b92915050565b6000819050919050565b610c0981610bf6565b8114610c1457600080fd5b50565b600081359050610c2681610c00565b92915050565b60008060408385031215610c4357610c42610bc5565b5b6000610c5185828601610be1565b9250506020610c6285828601610c17565b9150509250929050565b60008115159050919050565b610c8181610c6c565b82525050565b6000602082019050610c9c6000830184610c78565b92915050565b610cab81610bf6565b82525050565b6000602082019050610cc66000830184610ca2565b92915050565b600080600060608486031215610ce557610ce4610bc5565b5b6000610cf386828701610be1565b9350506020610d0486828701610be1565b9250506040610d1586828701610c17565b9150509250925092565b600060ff82169050919050565b610d3581610d1f565b82525050565b6000602082019050610d506000830184610d2c565b92915050565b600060208284031215610d6c57610d6b610bc5565b5b6000610d7a84828501610be1565b91505092915050565b6000610d8e82610ab7565b9050919050565b610d9e81610d83565b82525050565b6000602082019050610db96000830184610d95565b92915050565b60008060408385031215610dd657610dd5610bc5565b5b6000610de485828601610be1565b9250506020610df585828601610be1565b9150509250929050565b7f4e487b7100000000000000000000000000000000000000000000000000000000600052602260045260246000fd5b60006002820490506001821680610e4657607f821691505b602082108103610e5957610e58610dff565b5b50919050565b6000606082019050610e746000830186610ae9565b610e816020830185610ca2565b610e8e6040830184610ca2565b949350505050565b7f4e487b7100000000000000000000000000000000000000000000000000000000600052601160045260246000fd5b6000610ed082610bf6565b9150610edb83610bf6565b9250828201905080821115610ef357610ef2610e96565b5b9291505056fea2646970667358221220a9205661f87073a567b96d3fb2b907edc2c49466bc0f96eb325a45e8efbdd8cf64736f6c634300081b0033a26469706673582212209799cafa3e813262d69668490ce96f6104c984408cd9227e33f8c440cfeefaf564736f6c634300081b0033",
  "linkReferences": {},
  "deployedLinkReferences": {}
}